:020000022000DC
:10600000000001205D630200456302004763020057
:10601000496302004B6302004D6302000000000070
:106020000000000000000000000000004F630200BC
:106030005163020000000000536302005563020038
:10604000A5830200576302007985020057630200AE
:1060500057630200576302002D8402005763020059
:106060005763020057630200576302005763020040
:106070005763020057630200576302005763020030
:1060800057630200957302005763020057630200D2
:106090005763020057630200019D0200576302002C
:1060A0005763020057630200576302005763020000
:1060B0005763020057630200000000000000000068
:1060C00057630200576302005763020057630200E0
:1060D000576302005763020057630200000000008C
:1060E00000000000000000000000000000000000B0
:1060F00000000000000000000000000000000000A0
:10610000000000000000000000000000000000008F
:10611000000000000000000000000000000000007F
:10612000000000000000000000000000000000006F
:10613000000000000000000000000000000000005F
:10614000000000000000000000000000000000004F
:10615000000000000000000000000000000000003F
:10616000000000000000000000000000000000002F
:10617000000000000000000000000000000000001F
:10618000000000000000000000000000000000000F
:1061900000000000000000000000000000000000FF
:1061A00000000000000000000000000000000000EF
:1061B00000000000000000000000000000000000DF
:1061C00000000000000000000000000000000000CF
:1061D00000000000000000000000000000000000BF
:1061E00000000000000000000000000000000000AF
:1061F000000000000000000000000000000000009F
:10620000314932480A1A02D0072291438D4630495B
:1062100030480A1A06D00722914381F309880222E6
:1062200082F314882C482D492D4A00F03CF82D4863
:106230002D492E4A00F037F82D482E492E4A00F0FD
:1062400032F82E482E492F4A00F02DF82E482F49BB
:106250002F4A00F028F82F482F49304A00F023F841
:106260002F483049304A00F01EF8304830490022AB
:1062700000F024F82F483049002200F01FF82F4A80
:1062800090471F481F49884205D00268043003B474
:10629000904703BCF7E700208646EC46002000212B
:1062A000274A9047FEE7884207D0521A05D0037864
:1062B00001300B700131013AF9D17047884202D0A8
:1062C00002700130FAE770470000012000E0002072
:1062D00000000120000001208CB10200B81D002048
:1062E0000C1E0020B8630200B863020010A2020076
:1062F0008CB10200B81D0020B81D002044A302008C
:1063000044A3020044A3020044A3020044A30200E9
:1063100044A3020044A3020044A302008CB1020083
:10632000E0B102000C1E00200C1E00200C1E0020FC
:10633000042800200428002004280020856302008F
:106340002D910200FEE7FEE7FEE7FEE7FEE7FEE72F
:10635000FEE7FEE7FEE7FEE700F002B8FFF7FCBF4E
:106360000F484FF00701884385460E4880470E4886
:10637000016841F470010160BFF34F8FBFF36F8F6D
:10638000FFF73EBF09480A490A4A884207D0521A15
:1063900005D0037801300B700131013AF9D1704713
:1063A00000000120E97D020088ED00E044A3020026
:0863B000B81D0020B81D0020FB
:1063B800F0B595B01D46164608460C4601F05AFB46
:1063C8001A9B0D93CDE9086500252B46082205A9DF
:1063D80020460A958DF82C500C9501F067FB079B19
:1063E8000293069B03939DF814308DF8115003F027
:1063F8000302012A1DD1BDF81420059DC3F3C20371
:10640800C2F383168DF81030B20008230EA9204677
:1064180001F04CFBC5F3952508AB0093324602AB5F
:106428000EA9284600F0BAFB204601F027FB15B05C
:10643800F0BD022AF8D1BDF81650C3F3C203C5F364
:1064480089158DF810300827082D2E4628BF0826F4
:106458003B4632460EA9204601F028FBAD1B08AB8F
:1064680002AA31460EA8374400F0FCFB002DEBD100
:10647800DAE70000014B01221A7070474D1E002018
:106488007047000070B50E4D06460FCD88B06C46BB
:106498000FC495E80F00002E84E80F00094A0A4847
:1064A8004FF0060308BF00226946009301F0FEFE84
:1064B80008B100F037FC054B1E7008B070BD00BF76
:1064C80044A302007D640200B81D00200C1E0020B9
:1064D80007B5044B0093044A4023FFF769FF03B054
:1064E8005DF804FBF56402000D1E002038B50D4868
:1064F8000D4C0E4D002323700378EB5CD2B263B1D0
:10650800043002F0C3FC08B100F00CFC084B1A7808
:1065180012B12378002BFBD038BD0C3002F064FA9E
:10652800F1E700BFB81D00204D1E0020A824002060
:106538000C1E002008B50848084A0378D35C3BB114
:10654800043002F007FCBDE808400020FFF79ABFBE
:106558000C3002F0D3F9F6E7B81D0020A82400207B
:106568000120FFF78FBF000008B5FFF7F9FF0448C7
:10657800042100F07DFA034B01225A7108BD00BFC7
:1065880034A30200CC1D0020037813F0040216D0B7
:1065980003F00303012B03D0022B09D0012070471D
:1065A8000A6800880232C0F3831002440A60F5E7E3
:1065B8000B684288023303EB92130B60EEE7104638
:1065C800704700002DE9F04FDFF81CA187B00F4697
:1065D80000230446861C0DF1070015468DF8073088
:1065E80000F078FDDAF804203A60DAF8083003F5AC
:1065F80080739B1A0AF21C470AF583690AF2144849
:10660800B3421AD30020002D69D004F00F039B0178
:1066180043F0050363F30F00DAF80430DAB203320B
:1066280033444AF822009DF80700CAF8043000F005
:1066380075FD012007B0BDE8F08F0121384600F054
:1066480048FF484600F05DFF404600F05AFFDAF880
:1066580008000290C0B203300AEB800002A9FFF7DD
:1066680093FF029B30BBDAB20AEB8202D168039136
:106678009A1C0133DBB20AEB83030292D3F80CB005
:1066880001F00303012B22D0022B15D0834640468C
:1066980000F03AFF10B1029BCAF808305946384654
:1066A80000F017FFDAF80830DAF8042003F58073F1
:1066B8009B1AA5E7D8B2CEE7BDF80E30C3F389130D
:1066C80003334FEA1B4B02EB93030293DFE7BDF85A
:1066D8000C30C3F383134FEA1B4B1344F5E7A405AF
:1066E80044F0060098E700BF201F0020064B07482B
:1066F80010B500221A7001F076F9044610B9044862
:1067080001F0D7FA204610BD201F0020E0A20200A9
:1067180098A3020030B50A4C71B10A4A0A49121B03
:10672800D20800239A4201D1002030BD31F823500D
:10673800854202D00133F5E7034654F83300F4E705
:1067480048A20200E0A20200B81D0020094B01394E
:1067580003EBC000032909D8DFE801F00A020406A8
:1067680004207047007970474079704700207047CF
:106778000220704748A2020070470000034BD3E98B
:106788000130C31A58425841704700BF201F0020EB
:106798002DE9F04186B0FFF7F1FF0546002840F0EB
:1067A800ED80774CC4F81804BFF34F8FA3680293A9
:1067B800DBB2033304EB830002A9FFF7E5FE029B7B
:1067C80018B1D4F81824002A5AD0DAB2991C013327
:1067D80004EB8202DBB204EB8303D268DB68049328
:1067E80002F00303022B0392029154D1BDF80E303C
:1067F8006448C3F38917502F3E4628BF502606F138
:10680800080166F38F13C1F30901ADF80E3001F0EA
:1068180002F90546002800F09C8001F02BF90023BE
:10682800082203A9284601F037F90299CB43DBB2C5
:106838000133C9B20331B6EB830F4FEA830204EB8D
:10684800810125D95FFA82F80823A6EB08062846B5
:1068580001F022F9F6B208F108034B4903F0FC03F2
:106868003246284601F018F9029B033703EB9707D5
:106878000297D4F81834002B43D1D4F8106453E0AD
:1068880062689A4294D8A260284606B0BDE8F081B2
:1068980008233246E5E7012B5BD1BDF80C303948B7
:1068A800C3F38311062928BF062161F38913023136
:1068B80001F00F018900ADF80C3001F0ACF8054685
:1068C800002846D001F0D6F80023082203A928465C
:1068D80001F0E2F80026BDF80C20C2F38312B300E1
:1068E800964203F10803C4D202994A1CC9B2033183
:1068F800029204EB81010422284601F0CDF801360A
:10690800E9E7284601F0BAF8FFF738FF80F0010000
:10691800C5B2B9E7F3685B7923B1336829461B68C8
:1069280030469847F3681E68002EF3D1284601F0D8
:10693800A5F80DF107008DF8076000F0CBFBD4F83F
:1069480018340BB9029BA3609DF8070000F0E6FB22
:10695800DAE7D4F8104454B90C4B0D480D49C01A65
:10696800C008000440F0020000F05EF8CCE723689D
:1069780020469B689847E3681C68ECE7002583E796
:10698800201F0020E0A202002C1F002048A20200C5
:1069980070A2020081A302002DE9F34704460E46C7
:1069A800924601A9012218469946FFF70BFE1C4F93
:1069B80010B3019D4FF00008AA1CC84508EB02015E
:1069C80025D11848002100F055FD80F3100000047F
:1069D80040EA1440E4006B1C04F03804DBB2EDB26A
:1069E80044F0010407EB8303033544EA881444EABE
:1069F8008624D86047F825403B781BB1FFF7C8FECE
:106A08000028FBD1FFF7B8FE02B0BDE8F087C9B295
:106A180007EB81015AF82830CB6008F10108CCE770
:106A2800201F00203C23002000231A46FFF7B4BF94
:106A380007B50123019201AAFFF7AEFF03B05DF885
:106A480004FB07B5CDE9002302236A46FFF7A4FF3C
:106A580003B05DF804FB1FB5CDE90123069B039342
:106A680001AA0323FFF798FF05B05DF804FB0000B7
:106A780030B50F4CD4F8102403460020114631B924
:106A8800D96808714AB9C4F810340A6030BDC968B9
:106A98000D79854206D00968F1E7D26814680C6060
:106AA8001360F3E701300A28E8D14FF0FF30EDE733
:106AB800201F002038B5084B0125D3F810441D705D
:106AC80004B938BDE3685D71236820465B68984760
:106AD800E3681C68F4E700BF201F002030B5C388B6
:106AE80085B004460D4633B1144A00921449154A3C
:106AF800284600F06CFD217A05291DD0637A4BB138
:106B0800A088FFF723FE104B104953F82020284691
:106B180000F05DFD227A0E4BA08853F822200392E4
:106B28000021FFF7F7FD039A0A490346284605B0F6
:106B3800BDE8304000F04BBD05B030BDC4A3020035
:106B4800ACA30200A4A3020030A40200C9A302005F
:106B580054A40200CCA3020007B503460846197ADC
:106B6800052911D05B7A2BB1094A0A49019000F036
:106B78002EFD01980849019000F029FD019803B005
:106B88005DF804EB00F018BD002AF8D0F2E700BF6A
:106B9800C4A30200C9A30200C1A302002DE9F04367
:106BA80085B01F460C9D002395F80C902B73064664
:106BB8000C46904629463846FFF790FFB8F1060F75
:106BC80009D8DFE808F00412181F283340003146BE
:106BD800284600F0FCFC002229463846FFF7BCFF97
:106BE80085F80C9005B0BDE8F08322683146284648
:106BF80000F0EDFCEFE7D4E900233146284600F029
:106C0800E6FCE8E7A36800933146D4E90023284668
:106C180000F0DDFCDFE7E3680193A36800933146E9
:106C2800D4E90023284600F0D2FCD4E72369029374
:106C3800E3680193A36800933146D4E9002328460A
:106C480000F0C5FCC7E76369039323690293E3680F
:106C58000193A36800933146D4E90023284600F045
:106C6800B6FCB8E708292DE9F74F80460E461746C7
:106C78001C463DD800251B7B2573214610460193F1
:106C8800FFF72CFFDFF88CA0DFF88CB0AE4232D9CA
:106C980018F805205946204600F099FC0135082DC2
:106CA800F4D11B49DFF874A0DFF874B0204600F077
:106CB8008EFC4FF000094E4524D918F809507E2D56
:106CC8001ED8284603F0AAF9002814BF2A462E2207
:106CD8005946204600F07BFC09F10109B9F1080F7B
:106CE800E9D1012221463846FFF736FF019B23737D
:106CF80003B0BDE8F08F5146204600F068FCCDE7B0
:106D08002E22E5E75146204600F061FCE4E700BF8B
:106D1800E0A30200DCA30200D6A30200DEA3020067
:106D2800E2A302001FB50021039001AA44F201006A
:106D3800CDE9011100F004F805B05DF804FB00008E
:106D480038B572B6FFF7B6FEFFF722FD0028FBD173
:106D5800104B114C114D1249E41AE408240444F074
:106D68000100FFF761FED5F8F030DB0700D500BE63
:106D78000C4944F00200FFF757FEBFF34F8FEA6853
:106D8800094B02F4E0621343EB60BFF34F8F00BF7F
:106D9800FDE700BF48A2020070A2020000ED00E07B
:106DA80073A402007FA402000400FA0510B5D0E91C
:106DB8000243D1E90202A04272EB03032CBF012077
:106DC800002010BD08B50A4800F0DBFA094AD2E9EC
:106DD8000031C018084BD3E9002341F1000190426B
:106DE80071EB030303D210F1807041F1000108BD7B
:106DF800D41D0020E023002058240020294B73B51F
:106E08001E7804461EB90026304602B070BD002820
:106E1800F9D0FFF7D7FFD4E902239042994139D33B
:106E280000230DF107008DF8073000F053F92369AE
:106E38002BB94FF0FF324FF0FF33C4E902239DF81E
:106E4800070000F06BF9D4E90530984700250DF1EB
:106E580007008DF8075000F03DF92369C3B1D4E964
:106E68000212B2F1FF3F08BFB1F1FF3F05D05B1836
:106E780042F10002C4E9023235469DF8070000F0ED
:106E88004DF9002DBFD00848214600F031FFBBE77F
:106E98001D46F2E7B3F1FF3F08BFB2F1FF3FB2D0A2
:106EA800F1E700BFE82300209CA4020013B5114BB2
:106EB80011491868019008231048582200F070FA08
:106EC800044698B90E4A0F4801A900F04BF9044648
:106ED80060B90C48012100F037FA01230A4A094831
:106EE800194600F099F9094B01221A70204602B0A0
:106EF80010BD00BF96A40200EC230020442400200B
:106F0800256F0200D41D0020FFFF7F00E82300202A
:106F1800014800F036BA00BFD41D00202DE9F74320
:106F2800064600F019FA40B1624AD2E9003113F17D
:106F3800807341F10001C2E900310021304600F0C0
:106F48001AFA38B15C4C236823B12068FFF756FF62
:106F5800002323600121304600F00DFA20B1FFF72D
:106F680031FF564BC3E900015548534C01A900F0C5
:106F78002AFA4FF0FF384FF0FF39A0B9DFF8448103
:106F88004D4D404600F0CAFE002800F08580D0E94B
:106F98000223B3F1FF3F08BFB2F1FF3F32D14046B1
:106FA80000F0B6FEEDE70378012B20D0022B08D1C4
:106FB800444D284600F0ACFE002877D0C0E902898D
:106FC800F7E75BB94168D1E90223B3F1FF3F08BF96
:106FD800B2F1FF3F02D03B4800F08AFE01A93848D1
:106FE80000F01CFA01A9364800F0EDF9C5E7416840
:106FF8002368994202D100232360EFE7314800F06B
:1070080090FEEBE7296891B12968D1E90201824233
:107018008B412FD22B68D3E90223B3F1FF3F08BF7E
:10702800B2F1FF3F03D02968404600F061FE4046B8
:1070380000F06EFED0E902490746FFF7C3FE201AAA
:1070480069EB0109012879F1000318DBB0F5350F68
:1070580013D3FFF75DFF1C4A02441C484FF4960304
:10706800002100F0F9F890B92B6813B9304600F008
:10707800CBF82F6003B0BDE8F0832246EDE7134854
:10708800002100F06EF93846FFF7B8FE01E00D2840
:10709800F9D000232B6074E7074B1B68002BE9D15C
:1070A800304603B0BDE8F04300F0B2B8084B012207
:1070B8001A7093E7E0230020602400205824002061
:1070C800442400209CA40200FFFFB400D41D00202B
:1070D800E823002070B5EFF3108672B60C4A946866
:1070E80001239CB993600B4B0B4DD3F880102940BA
:1070F8001160C3F88050D3F8841051604FF0FF320C
:10710800C3F88420047006B962B670BD0370FAE74C
:107118006424002000E100E0FC06FFBD084B9A68EB
:1071280010B55AB150B9EFF3108172B6054A1C6810
:1071380014605C685460986001B962B610BD00BF05
:107148006424002000E100E0435882B03BB10023F2
:10715800435043580193019B012002B070471846E1
:10716800FBE70000F8B5204B4479204E43F8242073
:107178001F4A204B06EBC4049B1A2279DB081B0428
:1071880032B143F002001C49FFF74EFC0820F8BD5D
:1071980002680C88C2F8084590F904508A78047986
:1071A8005201002DD2B219DB14494F1987F8002378
:1071B80001226D0904F01F0402FA04F441F8254085
:1071C800427906EBC201012446F832000C7143F003
:1071D80003000B49FFF728FC0020D8E7094904F011
:1071E8000F040A55ECE700BF782400207024002023
:1071F80048A2020080A20200A8A4020000E100E068
:10720800CAA4020014ED00E0036801221A60704766
:10721800036801225A60704773B501F15005AD004B
:107228000068ADB24FF480348C400026C0F80843A3
:10723800C0F84843465101F5A8714559019522F017
:107248007F42019D40F82120C0F844430BB1C0F8AB
:10725800044302B070BD00002DE9F74F0D4622F03F
:107268007F4402684FF4803705F150068F4080460E
:10727800B60002EB8500C2F84873B6B2C2F80873CC
:10728800D2F8041599464FF0000BD0F84035C0F8F5
:10729800401542F806B05B1A9259009223F07F43DA
:1072A800012B009A4FEA850A0CD1264B4FF48060D7
:1072B80043F001039847D8F8003043F806B09B59CB
:1072C8000193019BD8F80010D1F80465C1F8447304
:1072D800A31B23F07F43012B1CD11A4B05F5A8757E
:1072E800013443F0010341F825404FF4806098478A
:1072F800D8F80030D3F804359E4209D1D8F80030C8
:107308000020C3F84473C3F8047303B0BDE8F08FDA
:107318000D20FAE78A44C9F1FF13CAF84045D1F8AD
:107328000405221A013A22F07F4203F57F43934273
:10733800EED3002AE2D10134CAF84045D1F8043529
:107348009842DAE7E0A4020003680222C3F8442363
:1073580009B1C3F80423704700684FF48271FFF73E
:10736800F3BE4FF4803303FA01F10368C3F84813FE
:10737800C3F80813704750318900006889B2FFF7D5
:10738800E3BE0368D3F8040570470000024B034AC4
:107398001B681068184700BF78240020702400205C
:1073A80010B561B1B2FBF3F403FB1424A4B244B9E1
:1073B800C0E9001484608281C381204610BD0E207C
:1073C800FCE70920FAE737B550E8023F1FFAA3F5B2
:1073D800C488A54202BFBFF32F8F00220DE0C489E5
:1073E80025448489A54228BF2D1BC3EA054540E8EA
:1073F8000254002CE8D14FF001028DF803200193CC
:10740800019A0A609DF8031001F0FF0321B100689A
:1074180000EB124003B030BD1846FBE70A884B88E2
:107428009A4209D150E8022FC2EA224240E80223D8
:10743800002BF7D1012070470020704701F01F0290
:107448004B090121914000EB830000F01EB801F0C8
:107458001F0301229A404B0900EB8300D14300F03F
:107468002CB84B0901F01F0150F82300C84000F068
:107478000100704710B5034653E8000F0A4643E879
:10748800002494F0000FF7D110BD10B5034653E85F
:10749800002F42EA010043E8000494F0000FF6D1FF
:1074A80010BD10B5034653E8000F00EA010243E897
:1074B800002494F0000FF6D110BD10B5034653E830
:1074C800002F02EA010043E8000494F0000FF6D10F
:1074D80010BD10B5034653E8002F02EB010043E846
:1074E800000494F0000FF6D110BD10B5034653E820
:1074F800002FA2EB010043E8000494F0000FF6D13E
:1075080010BD0121FFF7C1BF0021FFF7CABF10B5A9
:1075180090B1D0E9012301689B1ADBB20A60013BF4
:10752800DBB2FF2B026802D10020107110BD116878
:107538004C1C14600B70F2E70E20F7E737B50546D0
:1075480000240DF107008DF80740FFF7C3FD2A68F6
:107558006B68116899420ED9481E106011F8013CF9
:10756800EC68298A01FB0344AB6811791B1ADBB26A
:10757800994238BF13719DF80700FFF7CFFD2046E9
:1075880003B030BD37B5054600230DF107000C46A2
:107598008DF80730FFF79EFD2A681368591C1160A3
:1075A800E968641A298AB4FBF1F41C709DF8070095
:1075B800FFF7B4FD03B030BD826810B504462AB1A8
:1075C80043690168006998470023A36010BD0EB4A1
:1075D80003B5039921B104AB01AA019300F076F831
:1075E80002B05DF804EB03B070470A2938B50446C9
:1075F8000D4602D10D21FFF7F8FFA3682268591C38
:10760800A160D554D4E901329A4204D32046BDE89A
:107618003840FFF7D1BF38BD2DE9F84F9846DDE96E
:107628000A43154682460F460A464FF00109AA4208
:107638000FD2C14538BFC14613F0010B01D16CB957
:1076480000240126B8F1010F1BD908F1FF386E4359
:10765800F8E709F10109B2FBF5F2E8E79B070ED557
:10766800B8F1000F0CBF30262026A145E9D2013C15
:1076780031465046FFF7B9FF002CF6D1E0E7202647
:10768800F3E7B7FBF6F39D42E1D9DFF83C80B7FB9F
:10769800F6F3504618F8031006FB1377FFF7A5FF1B
:1076A8003346AB42B6FBF5F6F1D2BBF1000F02D080
:1076B8000CB1A14501D3BDE8F88F20215046013C0B
:1076C800FFF793FFF4E700BFE6A402002DE9F74FA8
:1076D800054617468846002900F03E8118F8011B28
:1076E80049B92B7B002B00F03781284603B0BDE851
:1076F800F04FFFF761BF252940F0B780002698F8C2
:1077080000302D2B424608F1010823D0302B24D01D
:107718002B2B25D000242A2B02F1010123D13B6811
:107728001A1D1B683A601C440A4613782E2B26D172
:1077380001324FF0000A104610F8011BA1F1300C7D
:10774800BCF1090F1DD80A2303FB0A13A3F1300A61
:107758000246F0E746F00106D1E746F00206CEE71A
:1077680046F00406CBE711F8013CA3F130000928E4
:10777800DBD80A2202FB0434303C0A46CBE74FF040
:10778800000A12F8011B01F0FB0068289046F8D0A7
:10779800782909D86F290CD8632962D022D82529DD
:1077A80063D0582900F0888098F80030002B95D1D4
:1077B80097E770390829F7D801A353F821F000BFDB
:1077C8003B790200B1770200B1770200D17802005C
:1077D800B1770200AF780200B1770200B1770200FA
:1077E800C1780200642901D06929DDD13A68D2F84C
:1077F8000090111D89EAE9723960A2EBE9724FF035
:10780800010B092A35DCD34538BFD3462CB1B9F171
:10781800000F01DB720700D5013CB30702D5BAF1AE
:10782800000F03D0F00701D44CBB0024B9F1000FBE
:107838002DDAC9F100092D212846FFF7D6FE06F0FA
:107848000302022A04D1BAF1000F01D11CBB0024A3
:10785800CDE9004653460A2249462846FFF7DCFE92
:10786800A2E73B681A1D19783A602846FFF7BDFE63
:107878009AE70A230BF1010BB2FBF3F2C1E7A34528
:10788800D4D220212846013CFFF7AFFECCE7710790
:10789800D5D52B21D0E7A345DAD230212846013CA3
:1078A800FFF7A3FED2E73968CDE900460A1D3A6022
:1078B80053460A220968D0E739680A1D3A60CDE9BB
:1078C800004653461022F5E73B681A1D3A6016F049
:1078D8000106D3F8009024D1B9F1000F03D048462F
:1078E80002F061FC0646B4421DD809F1FF3919F8C7
:1078F800011F00293FF458AF2846FFF776FEF6E748
:1079080028460136FFF771FE19F806100029F7D14D
:10791800A642BFF449AF20212846013CFFF765FE87
:10792800F6E70026F0E720212846013CFFF75DFE38
:10793800D9E73B681A1D3A60302128461C68FFF7D2
:1079480054FE78212846FFF750FE00220823CDE98F
:1079580000322146102280E703B0BDE8F08F00BF57
:107968002DE9F84FB0F806A04579D2F800B09DF897
:1079780028900AFB05F5043D88460BEB0301A94254
:1079880003F1040488BFA5EB030BB4FBFAF6074622
:107998000AFB1644C2F800B04EB9AAEB04055D45CF
:1079A80028BF5D46BBF1000F04D1BDE8F88F3F68E2
:1079B800013EF1E7043408EB06003C442A46B9F1DD
:1079C800000F0DD02146ABEB050B02F069FBDA4541
:1079D8002E443F6855464FF0000428BF5D46E1E756
:1079E80001462046EFE7FFF792BDF8B54679014614
:1079F800721E0546002393422D6803D30024A64235
:107A080002D8F8BD0133F6E70F682846FFF7BAFD3C
:107A180001343946F3E72DE9F843068ACD1C0746B9
:107A2800FFF78CFD043E35440446B5FBF6F5F0B18E
:107A38004FF48073EDB28380C680013D07608146B4
:107A48004FF00008A84512D23846FFF777FD0646E2
:107A580048B163790133637108F10108C9F800007E
:107A680007608146EEE72046FFF7BFFF3446204611
:107A7800BDE8F88301210430FFF72BBD10B50121C3
:107A880004460430FFF731FDC0B220B92046BDE8F6
:107A98001040FFF7AABF10BD1FB503920022009245
:107AA80003AAFFF75DFF05B05DF804FB1FB503925D
:107AB8000122009203AAFFF753FF05B05DF804FB0B
:107AC80041DF7047064B10B500241C70054B1C6045
:107AD800BFF35F8F0449054800F0F4F8204610BD55
:107AE800842400208824002000A502007C24002093
:107AF80007B500230DF107008DF80730FFF7EAFA04
:107B0800F1EE103A23F09F03E1EE103ABFF35F8FD6
:107B18000A4B4022C3F884219DF80700FFF7FEFABC
:107B280002F0D0F820B103B05DF804EBFFF7C8BF4E
:107B380020BF40BF20BF03B05DF804FB00E100E0B8
:107B4800026813685268934291BFD01A8068013066
:107B5800801888BFC01A7047036881681A685B6814
:107B68008B4234BF01330023D31A5842584170471F
:107B780073B5002304460DF107000D468DF8073054
:107B8800FFF7A8FA2046FFF7E7FF10B1237C002B88
:107B98003BD12368A1685E685A688A4234BF0132C3
:107BA80000225A6028B11A688A4234BF0132002282
:107BB8001A60E2686368511E072920D8DFE801F0DF
:107BC80004101F141F1F1F182A789A552046FFF704
:107BD800B7FF23689A68824200D29860002415E0B3
:107BE8002A8823F81620F1E72A6843F82620EDE7CB
:107BF800D5E9000103EBC603C3E90001E6E729461E
:107C080002FB063002F04CFAE0E704249DF8070076
:107C1800FFF784FA204602B070BD036818685B68F5
:107C2800C31A58425841704773B5002305460DF1F1
:107C380007000C4616468DF80730FFF74BFA284622
:107C4800FFF7EBFF002832D12B6819682EB91A68A4
:107C5800A868824238BF561C1E60EA686B68501ECE
:107C680007281ED8DFE800F0040E1D121D1D1D1682
:107C78005B5C237000249DF80700FFF74FFA20464D
:107C880002B070BD33F811302380F3E753F8213088
:107C98002360EFE703EBC103D3E90023C4E9002322
:107CA800E8E701FB0231204602F0FAF9E2E7052491
:107CB800E1E7836800225A60C3E904229A60DA6027
:107CC8001A6070470B684A684360934208BF0023F4
:107CD800016008BF43607047436843B10268916818
:107CE80052680B449342436004BF002343607047CB
:107CF80070B5446806460D46206818B1B368294631
:107D0800984718B923682B60256070BD2468F3E78D
:107D18004368186808B102681A60704743681868B1
:107D280070474368186800B97047884203D10268F1
:107D38001A600120704703460068F4E710B50D4942
:107D4800A1F59472914201D800200FE08C1AE30F3C
:107D580003EBE4035B1002EBC30452F833308342B5
:107D680005D802D204F10802ECE7606810BD21468C
:107D7800E8E700BF0CAA020008B5FFF7DFFF024BD7
:107D8800002808BF184608BDCFA802004FF080534E
:107D9800D3F83001421C04BF4FF0704393F8E00F52
:107DA800831F5842584170474FF0704393F8E02FB3
:107DB800062A09D1D3F8E83FC3F30313033B042B86
:107DC80002D8024AD05C7047002070471BAA020004
:107DD800024AD2F80034002BFBD0704700E0014083
:107DE80010B5FFF7D3FF40B14FF08053944AD3F852
:107DF8002433C3F30423C2F84035FFF7D5FF10B18D
:107E0800904B914A5A67FFF7C1FF48B14FF0805332
:107E18004FF08042D3F84432C3F34233C2F83C35C2
:107E2800FFF7C2FF30B1894AD2F8FC3023F08073E3
:107E3800C2F8FC30FFF7AAFF40B14FF080430022A0
:107E4800C3F80C21C3F81021C3F83825FFF7ACFF9D
:107E580020B14FF080430322C3F8A025FFF7A4FF09
:107E680060B17B4B0522C3F810260122C3F888268F
:107E78000022C3F818263F22C3F814264FF0805377
:107E8800D3F83021511C09BF4FF07043D3F8343177
:107E980093F8E02FD3F8E83F08BFC3F30313062A8B
:107EA8004DD1033B042B03D86A4AD35C002B46D040
:107EB8004FF08052684BD2F80414C3F82015D2F85A
:107EC8000814C3F82415D2F80C14C3F82815D2F8EE
:107ED8001014C3F82C15D2F81414C3F83015D2F8BE
:107EE8001814C3F83415D2F81C14C3F84015D2F886
:107EF8002014C3F84415D2F82414C3F84815D2F84E
:107F08002814C3F84C15D2F82C14C3F85015D2F81D
:107F18003014C3F85415D2F83414C3F86015D2F8E5
:107F28003814C3F86415D2F83C14C3F86815D2F8AD
:107F38004014C3F86C15D2F84424C3F87025FFF731
:107F480025FF48B14FF080534FF08042D3F85832A4
:107F580003F04F03C2F8E43EFFF718FF48B14FF0B3
:107F68008043D3F80024D20744BF6FF00102C3F85E
:107F780000244FF08053D3F83021062A0ED1D3F8CD
:107F88003431033B042B02D8344AD35C33B1344A2E
:107F9800D2F83C3743F48063C2F83C372B4AD2F816
:107FA800883043F47003C2F88830BFF34F8FBFF3B3
:107FB8006F8F4FF08053D3F83021062A0FD1D3F8B2
:107FC8003431033B042B02D8264AD35C3BB14FF033
:107FD8001023D3F808224FF08043C3F858254FF0F8
:107FE8001023D3F80022002A03DBD3F80432002B35
:107FF80022DA1D4901234FF01020C1F80435152459
:10800800FFF7E6FEC0F80042FFF7E2FEC0F80442C0
:10801800FFF7DEFE0023C1F80435FFF7D9FEBFF3F2
:108028004F8F0A49114BCA6802F4E0621343CB60D0
:10803800BFF34F8F00BFFDE70D4B0E4A1A6010BD0E
:108048000030014000C007400DF0ADBA00ED00E07F
:10805800005000400CAA020000C0004011AA020013
:108068000010004016AA020000E001400400FA05D2
:10807800DC1D00200090D003044B1A5C01239340C0
:108088004FF0A042C2F80C35704700BF20AA02008A
:10809800044B1A5C012393404FF0A042C2F8083504
:1080A800704700BF20AA020008B50020FFF7F0FFC4
:1080B8000120FFF7EDFF0220FFF7EAFFBDE80840C7
:1080C8000320FFF7E5BFC20708B501460CD54FF0FE
:1080D800A0430322C3F84427C3F84827C3F84C2712
:1080E800C3F85027FFF7E0FF8B070AD54FF0A043EE
:1080F8000C22C3F83427C3F83827C3F83C27C3F841
:10810800402708BD38B5074C051E04F1080318BF01
:108118001C4623682BB11A6822605B68284698477A
:10812800F7E738BD9424002020B9054B01225A7086
:10813800FFF7E8BF012802D1014A9070F8E77047BD
:108148008C24002020B9034B01225A70FFF7DABFB4
:10815800704700BF8C24002038B50E4C2378B3B983
:108168000D486360A3602361E36000F0E7F805460B
:1081780001F0A8FD08B900F0EDF801232370074BC2
:10818800D3F800340BB10123A370284638BD8525E8
:10819800F5E700BF8C240020318102000000014077
:1081A80037B50D4C00230DF107008DF80730FEF7A9
:1081B80091FFE368013BE360E36833B9074BD3F809
:1081C800005415B900F0D8F8A5709DF80700FEF71F
:1081D800A5FF03B030BD00BF8C2400200000014083
:1081E800012813B50CD0032820D038B9134B01222D
:1081F800C3F88020BFF34F8FBFF36F8F02B010BD5D
:108208000F4C00230DF107008DF80730FEF762FFD1
:1082180023780BB9FFF7A0FFE3689DF80700013347
:10822800E3600123A370FEF779FFE7E700F092F817
:1082380002B0BDE81040FFF7B3BF00BF00E100E0A7
:108248008C2400201FB503788DF800304368019313
:1082580083688DF80830C368054A0393054B684660
:1082680053F8213052F82110984705B05DF804FB07
:10827800A0240020A42400201FB503788DF8003026
:108288004368019383688DF80830C368054A0393EF
:10829800054B684653F8213052F82110984705B02D
:1082A8005DF804FBA0240020A4240020F0B5194B9D
:1082B80090F800C091F81DE043F82C20164B1646A4
:1082C8000A6943F82C20154B03F80CE00C460746C6
:1082D8000FCC89B06D460FC594E80F0085E80F00F4
:1082E800CDF810C0BEF1000F09D0002E0C4A694627
:1082F80008BF3246381D00F06BFC09B0F0BD002EF7
:10830800084A694608BF324607F10C0000F042FAF5
:10831800F3E700BFA4240020A0240020A824002004
:108328004D8202008182020000F18040002382B069
:10833800036003680193019B02B07047044A1379F4
:1083480023B9012110609180184670478520704735
:10835800AC240020074B1A68D20704D4C02283F843
:10836800002301221A604FF080430122C3F8182528
:10837800704700BF00E100E04FF0804208B50223DB
:10838800C2F808334FF48270FFF7CEFF0123D360A1
:10839800D2F81834DB03FBD408BD00004FF080414D
:1083A80010B5D1F8003163B14FF48070FFF7BCFF0E
:1083B8000D4B58790122C1F8082310B95A711B686E
:1083C80098474FF08042D2F8043163B14FF482707D
:1083D800FFF7AAFF0223C2F80833034BBDE8104099
:1083E8001B680120184710BDAC24002000F1804014
:1083F80000F5C040002382B0036003680193019B2D
:1084080002B07047800000F1A040D0F8002722F4A5
:108418004032C0F80027D0F8003743EA0141C0F8DD
:10842800001770472DE9F74F00244E4D01944FF483
:108438008072012102F1804303F5C04390B21B68AA
:10844800012B06D1D5F804330B4202D0FFF7CEFF3B
:108458000C430432B2F5907F4FEA4101EAD1414B17
:10846800D3F87C31012B0CD14FF4BE70FFF7BEFF5F
:108478004FF0A04344F00044D3F820250192C3F8FC
:108488002025E3B2D3B1384F00250126344210D05D
:10849800AB0003F1804303F5C043D3F81005D3F8CC
:1084A800101557F8253023B1C1F30141C0F304205A
:1084B80098470135082D4FEA4606E7D1002C48DADF
:1084C800294D4FF0A048294E4FF00009012716F911
:1084D800013B5A1C31D0C3F3C20208326A44DCB2F1
:1084E80012F8042C03F03F0A03F0070307FA03F31A
:1084F8001A4222D00AF5E073504658F82330C3F3E5
:10850800014BBBF1020F0CBF03210221FFF77AFFD9
:1085180007FA0AF3C8F8203505EB0A0393F9303057
:1085280055F823304BB1A109032904D0BBF1020F40
:1085380012D1012901D15046984709F10109B9F131
:10854800040FC4D1D8F820350193C8F82035002B82
:10855800B9D103B0BDE8F08FBBF1030FEDD102290B
:10856800E8E700BF00600040B42400200425002094
:10857800014B1B68184700BF102500200E4B98427E
:1085880037B50C4602D0002003B030BD00230DF1F2
:1085980007008DF80730FEF79DFD084B1D7915B9CA
:1085A80001221C601A719DF80700FEF7B7FD002D27
:1085B800E9D01120E8E700BF002000401025002086
:1085C800034B984201BF034B00221A601A7170478F
:1085D80000200040102500200023435082B043585B
:1085E8000193019B02B070470A4610B54FF48E7193
:1085F800FFF7F2FF136A9168C95C136A01331362CB
:10860800C0F81C1510BD8B690A4610B54FF484716B
:1086180023B9FFF7E1FFD0F8183510BDFFF7DCFFED
:10862800536AD168D0F81805C854536A01335362A5
:10863800F3E700001FB501238DF80030044BCDE9A6
:108648000110D3E900126846904705B05DF804FBB5
:108658001825002030B54D4DD5F804339A0585B05E
:1086680051D5D5F82431002B4DD04FF492712846BE
:10867800FFF7B2FF4FF40173C5F80833444B93F882
:1086880029200AB901226A60404902228DF8002097
:10869800D1F88024C1F8802403929A690292DA689A
:1086A80001920022C3E906226846D3E900129047E6
:1086B8003648D0F81C315BB1354A5169136A994282
:1086C8004DD992F82830002B49D11146FFF78CFF7D
:1086D8002E48D0F84431002B56D04FF4A271FFF742
:1086E8007BFF2B4B93F829200AB1012202609A697B
:1086F800002A49D0586AD96800229A6105B0BDE8B5
:108708003040FFF797BFD5F804335B07D0D5D5F8CD
:108718000831002BCCD01E4C1C482146FFF773FFB4
:10872800636AA2699A42C3D1E369E1684BB1A36164
:108738002369E3600023606AE3616362FFF77AFFFD
:10874800B6E794F829300BB901236B600F4B4FF44F
:108758000172C3F808230023606AA361EEE70B489F
:108768004FF48E71FFF738FF5369002BB0D0516971
:108778000291002391688DF8003001915361684699
:10878800D2E900139847A3E705B030BD00200040A8
:10879800182500202DE9F843534D90F804802C2328
:1087A80003FB0853064693F82A300C469146002BE3
:1087B80040F096804D490068FFF7E0FE0746002824
:1087C80040F0908022683068511C0BD04FF0A041D7
:1087D80001239340C1F8083502F5E0734FF0030C0C
:1087E80041F823C061684B1C1FBF01F5E0734FF0CF
:1087F800A04C4FF0000E4CF823E0A369C0F82435D4
:1088080094F814C0637DBCF1010F4CEA0303C0F86F
:108818006C35C0F81415C0F80C251DD1A268531C7E
:108828001FBF02F5E0734FF0A0414FF0000C41F874
:1088380023C0E368591C0BD04FF0A04C012199408C
:10884800CCF8081503F5E0714FF0030E4CF821E061
:10885800C0F80835C0F810252C2202FB08F2AB1826
:10886800C3F804902369AB50B9F1000F20D04FF43E
:108878008E71247FFFF7B0FE4FF4A2713068FFF7C6
:10888800ABFE32681A4BC2F80433130B42F30732BB
:108898006101002AC9B21EDB1648841884F8001347
:1088A8000121520903F01F0301FA03F340F82230B3
:1088B80033680422C3F800252C2303FB0853002245
:1088C800C3E9062283F829205A61012283F82A2065
:1088D8003846BDE8F883084A03F00F03D154E7E7A8
:1088E8000827F5E71127F3E7182500205D86020021
:1088F8008000020000E100E014ED00E0F8B5036834
:108908000579304C0022C3F800252C2202FB0542D1
:108918005268A2B12C4AC3F808231A0B43F3073351
:10892800002B0CDB02F01F015B0901228A40203377
:10893800264941F82320BFF34F8FBFF36F8F00689C
:10894800D0F80C65D0F81415D0F80835D0F81025F3
:108958004FF0FF37BE42C0F8147518BF06F5E07631
:10896800C0F80C75C0F80875C0F810751EBF4FF038
:10897800A0474FF0020C47F826C04E1C1FBF4FF00F
:10898800A04601F5E071022746F82170511C1FBF6F
:108998004FF0A04102F5E072022641F822605A1C0D
:1089A8001FBF03F5E0734FF0A042022142F82310E5
:1089B800FFF706FE2C2303FB0544002384F82A3026
:1089C8006360F8BD182500208402020000E100E081
:1089D8000279044B2C2101FB02335869003818BF77
:1089E80001207047182500202DE9F84F064690F819
:1089F800048089469246FFF7EBFF044600283CD1E5
:108A0800204F2C2508FB057B4FF48E71CBF814A062
:108A1800CBF80890CBF820008BF828003068FFF7D7
:108A2800DBFD3068012383605946FFF7DDFDDBF885
:108A380004305D461BBB3068DBF814402B6A9C424F
:108A480011D83368D3F81C21002AFBD00122DA6040
:108A580000202C2303FB087700237B61BDE8F88FF7
:108A680095F828303BB9D0F81C31002BF8D059467E
:108A7800FFF7BAFDE2E70F20EBE71120EEE720460B
:108A8800ECE700BF182500200023435082B043586C
:108A98000193019B02B070471FB501238DF8003088
:108AA800044BCDE90110D3E900126846904705B0A0
:108AB8005DF804FB442500207FB5434AD2F82461C1
:108AC800002E60D010464FF49271FFF7DDFF0223AD
:108AD8008DF80030D2F88034C2F880340393D2F88D
:108AE8003C350293394BDA6801920022C3E9062229
:108AF8006846D3E9001290473348D0F8443173B13F
:108B08004FF4A271FFF7C0FF304B9A693AB10022C7
:108B1800C3E90622D968D0F83C05FFF7BDFF2A480B
:108B2800D0F82031ABB14FF49071FFF7ADFF0123BE
:108B3800C360264B5A6962B1D0F84C1502910022E5
:108B480099688DF8002001915A616846D3E90012AE
:108B580090471D48D0F858319BB14FF4AC71FFF7DE
:108B680093FF1A4B5A6962B1D0F84C150291002252
:108B780099688DF8002001915A616846D3E900127E
:108B8800904704B070BDD2F81031002BB4D04FF428
:108B980088711046FFF778FF0C4BD2F83C059969AD
:108BA8008842A9D1DC69D96864B1D2F8005225F0AD
:108BB8002005C2F800521A699C61DA60DE61FFF78D
:108BC8006BFF99E79C61FAE70020004044250020EC
:108BD8002DE9F8435A4E90F80480242303FB0863D8
:108BE800044693F820300D469146002B40F0A380B0
:108BF80054490068FFF7C2FC0746002840F09D80F2
:108C08002A682068511C0BD04FF0A04101239340E3
:108C1800C1F8083502F5E0734FF0030C41F823C0A2
:108C280069684B1C1FBF01F5E0734FF0A04C4FF073
:108C3800000E4CF823E0AB69C0F8243595F814C051
:108C48006B7DBCF1010F4CEA0303C0F86C35C0F82A
:108C58000C25C0F814151DD1AA68531C1FBF02F5B6
:108C6800E0734FF0A0414FF0000C41F823C0EB68CF
:108C7800591C0BD04FF0A04C01219940CCF8081595
:108C880003F5E0714FF0030E4CF821E0C0F8083509
:108C9800C0F81025242202FB08F2B318C3F8049088
:108CA8002B69B350B9F1000F2FD04FF488712A7F88
:108CB800FFF7EAFE20684FF49071FFF7E5FE2068A1
:108CC8004FF49271FFF7E0FE20684FF4A271FFF7AE
:108CD800DBFE4FF4AC712068FFF7D6FE23681A4913
:108CE800C3F80413190B43F307335201002BD2B214
:108CF8001CDB1648C51885F8002301225B0901F022
:108D08001F0102FA01F140F8231023680822C3F872
:108D18000025242303FB08660023C6E90633736194
:108D2800012386F820303846BDE8F883084B01F067
:108D38000F015A54E9E70827F5E71127F3E700BFC1
:108D480044250020C18A02001003420000E100E02F
:108D580014ED00E0F8B5444C0579242303FB0543E2
:108D680002465B680068ABB1404BC0F8083340F37B
:108D78000733002B4FEA10310CDB01F01F065B09AB
:108D88000121B14020333A4E46F82310BFF34F8FEC
:108D9800BFF36F8FD0F8003223F02003C0F8003201
:108DA800242303FB05439B692BB14FF4A271FFF702
:108DB8006BFE012343604FF4AC71FFF765FE01239E
:108DC800C360242303FB0543D0F858110029FBD0C6
:108DD800996919B1D0F844110029F5D00023C0F8D9
:108DE80000351368D3F80C75D3F81465D3F8082543
:108DF800D3F810154FF0FF3C6745C3F80CC518BFF2
:108E080007F5E077C3F814C5C3F808C5C3F810C55B
:108E18001EBF4FF0A0434FF0020C43F827C0771C49
:108E28001FBF4FF0A04306F5E076022743F82670EF
:108E38004E1C1FBF01F5E0714FF0A043022643F816
:108E48002160531C1FBF4FF0A04302F5E0720221BE
:108E580043F82210FFF7B4FB242303FB0544002347
:108E680084F820306360F8BD4425002010034200D8
:108E780000E100E00279044B242101FB0233586928
:108E8800003818BF012070474425002001F06043D6
:108E9800B3F1005F2DE9F0470646884692463BD17C
:108EA80090F80490FFF7E6FF0446002836D11D4FDE
:108EB8003068242505FB09754FF49071C5F814A096
:108EC800C5F80880FFF7E0FD4FF4AC713068FFF794
:108ED800DBFD33686A69A968C3F84415C3F84825F7
:108EE80001229A606A68DAB9D3F82021D3F85801C8
:108EF8001AB90028F8D00F2007E00028FBD101227A
:108F0800DA60D3F85821002AFBD0242303FB097721
:108F180000237B61BDE8F0871020FBE71120F9E70B
:108F28002046F7E744250020032811D8012A0AD152
:108F380001290FD100F10E02D2B20D4B00EB400017
:108F48001A54002070470129F7D0022904D049B1EA
:108F5800072070470022F8E7054B00EB4000184453
:108F68004270EEE7024B00EB400018448270E8E7DD
:108F78006825002008B5012202210020FFF7D4FF50
:108F880008B1072810D1072202210120FFF7CCFFE2
:108F980008B1072808D100210A220846FFF7C4FFB4
:108FA80010B1072808BF002008BD00000388102B57
:108FB80010B502D0112B1ED010BD1A4C2168B1B9C2
:108FC80001220846FFF7B0FF08B1072824D107227D
:108FD80002210120FFF7A8FF08B107281CD10422AD
:108FE80002210020FFF7A0FF08B1072814D1236849
:108FF80001332360E0E70B4A1368013B1360002B41
:10900800DAD1FFF7B7FF0028D6D0074B1B68002B33
:10901800D2D0BDE810401847034B1B68002BE6D0A0
:109028009847E4E7782500207425002075DF70470D
:1090380076DF70478FDF704708B5074800F0ECFC13
:1090480008B1FDF76FFE0120FFF722F8BDE80840E0
:109058000020FFF711B800BF1C2700200388212B30
:1090680007B540D008D8112B22D01F2B2FD0102B9A
:109078000BD003B05DF804FB3B2B01D0562BF8D185
:1090880013218088FFF7D4FF26E01E4B1E481F4996
:10909800C01AC008000440F00300FDF7C5FC012019
:1090A800FEF7EAFF002003B05DF804EBFEF7F0BF1F
:1090B800144B15481649C01AC008000440F00300B4
:1090C800FDF7B2FC03B05DF804EBFFF7B5BF00F1A4
:1090D80008018088FFF7AAFF0028CAD003B05DF80E
:1090E80004EBFDF71FBE002380888DF8043001A92A
:1090F8008DF80530FFF79EFF0028BAD0FDF712FE65
:10910800B7E700BF48A2020070A2020046AA020008
:1091180051AA02000378052B03D1406808B1FDF776
:1091280001BE70471FB54FF480410020FDF7DEFAFD
:1091380008B1FDF7F7FDFDF717FAFDF7B7FE08B11F
:10914800FDF7F0FD0120FEF7BEFFFEF7BBFC08B1FE
:10915800FDF7E8FD00F078FD08B1FDF7E3FD002319
:1091680069460120009300F0FBFD08B1FDF7DAFD28
:10917800684600F097FE08B1FDF7D4FD10220021E3
:10918800684600F0B6FF01231C4A1D488DF80430DC
:1091980069468DF80C3000F0EFFB08B1FDF7C2FD11
:1091A80017480022012100F0CFFB08B1FDF7BAFDF6
:1091B800144A1348002100F09DFB08B1FDF7B2FDE9
:1091C8001148002100F05CF908B1FDF7ABFD0F4B29
:1091D8000F481049C01AC008000440F00300FDF70A
:1091E80023FCFFF729FF0020FEF746FFFDF7D0FA22
:1091F8000028FBD1FEF77CFCF8E700BF1D910200B8
:109208001C270020A4AA02000827002048A2020068
:1092180070A202005FAA020030B5C8B1F2B1002402
:10922800651C8D4206DA1588A54212D805196D7895
:109238009D420ED1A14211D9005D48B1013880B2DA
:1092480030B10234A3B210FA84F4A14206DB1380D1
:1092580030BD055D01352C44A4B2E1E70020F7E7F5
:10926800F7B500230646ADF80630144612B90020BB
:1092780003B0F0BD09230DF10602FFF7CDFFBDF8DD
:1092880006700546002FF2D00028F0D0204600F0E6
:109298008AFFA8420246EAD1F119204600F0C6FE2C
:1092A800B0FA80F04009E3E70AB1FEF7C7B8FEF765
:1092B800CEB873B50191019C06466CB100252C46C9
:1092C800294601A8FEF7CDF818B106EB440301348E
:1092D8009D800135142DF3D13046346002B070BD45
:1092E8002DE9F04703888488103B8CB005460A2B8B
:1092F80021D8DFE803F00640202020202020206528
:109308004700DFF8E880D8F80830DB430093D8F846
:1093180004106846FEF7D1F8009901A8FFF7C9FFC5
:109328000DF108090027019B9F4207D3132C12D97E
:109338000420FDF7F7FC0CB0BDE8F08739F802AB64
:1093480000260136514608EB8600FEF780F81E2EEF
:10935800F7D10137E7E71F482146FEF76FF81E48A7
:109368002146FEF76BF8EB7B022BE4D11B48214624
:10937800FEF764F8DFE7174821460CB0BDE8F04770
:10938800FEF765B8027A16483F2A4FEA12152146B9
:1093980094BF00220122FFF787FF022D94BF00220D
:1093A800012210482146FFF77FFF012D0E4894BF88
:1093B8000022012221460CB0BDE8F047FFF774BF38
:1093C800037A002BB7D1427A0548C2F3C00221467E
:1093D800F1E700BF8C270020882700209027002075
:1093E8009C2700209827002094270020842700200D
:1093F80090DF7047A5DF7047B5DF70477FB5002362
:10940800ADF80810ADF80A106A4602A90646ADF88C
:109418000C30ADF80E300093ADF80430FFF7E8FFDC
:10942800054600B3114B124CE41AE408FEF7A4FCFD
:10943800240444F0010403460E4932462046FDF751
:1094480000FBBDF80020BDF8023052EA030103D04A
:1094580009492046FDF7F5FABDF804201AB1074975
:109468002046FDF7E5FA284604B070BD48A2020080
:10947800A8A20200B3AA0200FDAA02003CAB0200A7
:1094880078B14FF0171303601B2303711723C380B0
:10949800038141F61B320023016143818281184612
:1094A80070470E207047000013B5034680880C46AD
:1094B800B8B91A88242A00F09B8014D8112A74D0CD
:1094C800232A00F0A680102A3ED0A37A4BB1E18867
:1094D8000020FFF78FFF002840F0A1804FF4807331
:1094E800638102B010BD3A2A67D0552AEDD1DB88D6
:1094F800C988A072172B38BF17238B4228BF0B4689
:109508002381FFF779FF60B1FEF736FC4D4B4E49DA
:1095180002464E481B1ADB081B0443F00100FDF706
:1095280087FAE27A002AD0D12369002BCDD040F601
:109538007721ADF802202289ADF80010ADF804209B
:10954800694620469847C0E7DB7B0A790A73012BF6
:1095580013D0022B14D0E18823898B4205D2002036
:10956800FFF748FF70B90123E372217B637B8B42CD
:10957800ABD20020FFF742FFA7E70B88E380EAE7BA
:109588004B88FBE7112802D10123A372EDE7FEF710
:10959800F3FB2C4B2E4902462C481B1ADB081B04F4
:1095A80043F00100FDF744FADFE71723CB800B8176
:1095B80041F61B3348818B8187E75B89CA889342D0
:1095C80028BF1346172B0A6938BF17230B8162B1CE
:1095D800C97A51B140F67721ADF80010ADF8020014
:1095E800ADF80430694620469047002363816CE754
:1095F8001A7A0B694A73002B3FF467AF4DF67A214C
:109608008DF80500ADF80010ADF802008DF80420C3
:1096180096E7197A237B994228BF1946AAE71128A9
:109628003FF45FAFFEF7A8FB064B0949024607481F
:109638001B1ADB081B0443F0010002B0BDE8104010
:10964800FDF7F6B9A8A20200C3AB020048A20200C7
:1096580092AB02009BDF70479DDF70479EDF70472B
:10966800A1DF7047A3DF7047AEDF704730B50488CD
:1096780000239AB2944206D9456835F813508D42B2
:1096880003F10103F5D1104630BD8B6910B50C46C6
:109698001988102913D8023189B2FEF7BCF9606025
:1096A80078B1A16900230222FEF7F6F9A269606881
:1096B8001288E1690223FEF7EFF9002010BD0920A6
:1096C800FCE70420FAE710B50C46C98A10290AD825
:1096D800FEF7A1F9606040B1E28AA1690023FEF7B4
:1096E800DBF9002010BD0920FCE70420FAE70000A0
:1096F800F7B505460C4C0D480092241AE4082404DA
:109708000B460F4616460A492A7844F00100FDF731
:10971800A2F9AB6833B1E9683A46304603B0BDE810
:10972800F040184703B0F0BDB0A2020048A2020002
:10973800FFAB0200F0B58FB00D46012206A9064620
:10974800FEF772FA044690B99DF81830052B65D8D3
:10975800DFE803F0030F1C24292EBDF82A20BDF8EA
:1097680028102846FFF77CFF0446112C40D10FB083
:10977800F0BD02A90798BDF82E200C910023FEF732
:1097880095F90AA92846FFF76DFFEDE7BDF82810FF
:109798000DF12A022846FFF75DFFE5E70AA92846EA
:1097A800FFF75AFFE0E70AA92846FFF757FFDBE76C
:1097B8000DF1060402AB214607980D9302220023FF
:1097C800FEF774F9BDF806200D9907980C9402234A
:1097D800FEF76CF90AA92846BDF80670FFF744FFA2
:1097E80004460028C1D1BDF80630BB4218BF0C247E
:1097F8009DF818200F4B53F8223013B10798FEF745
:10980800F4F8002206A93046FEF70EFA002CAED076
:109818002246294606A8FFF76BFFA8E70648074B2C
:1098280007491B1ADB081B0443F00200FDF7FCF88C
:10983800DEE700BF70AC020048A20200B0A202003E
:1098480049AC020037B50C4608B301B30588112DA1
:1098580015D181882046FFF709FF2388ADF8060057
:10986800834214D0112D14D163684FF6FF7223F888
:1098780010200DF10601E068FEF77AF907E0A5F17E
:1098880030031F2BE5D9A5F150031F2BE1D903B0F5
:1098980030BDA368142202FB0030FFF74BFFF6E748
:1098A8008ADF70478BDF70478CDF704730B590F8E0
:1098B800233089B004460D46D3B190F82C3001937B
:1098C800FFF7F0FF1422002103A800F012FC019B0F
:1098D80004F1240204F12E01A81CFFF7E5FF05237B
:1098E8008DF80C30049018B1E36B0BB103A89847BE
:1098F80009B030BD70B515460446E8B1E2B1E9B922
:10990800104600F050FC0138C0B21F2818D894F84F
:109918002060BEB92946204600F01EFC58B101233C
:1099280084F82030284600F03EFC294602462046AE
:1099380000F0B6FB304670BD0E20FCE70720FAE7C2
:109948000C20F8E70420F6E768B1CB060DD011F03B
:10995800010116BF012380F8211080F8213080F81A
:109968002220002070470E2070470720704790F88B
:109978002E00C0F3C000704738B50D4604460028D5
:1099880043D0C2630021232200F0B3FB65B32B79D7
:1099980084F823302B7B84F82C302B68D3B104F166
:1099A8002E0203F10C0153F8040B42F8040B8B420E
:1099B800F9D11B881380AA680AB31068516804F1AA
:1099C800240303C304F1400323661F23A4F864306F
:1099D800002038BDE28DA38602F0E30242F48272D1
:1099E800E2850B4A2263E6E7E38DA58603F0E303ED
:1099F80043F48273E385064B236384F82350054AB6
:109A08004FF0C873C4E90923DCE70E20E1E700BF83
:109A1800A00050000600180010B5044686B048B3F0
:109A28001422002101A800F064FBFFF73BFF204649
:109A3800FFF79DFF30B1E36B23B101228DF80420BD
:109A480001A8984704F1600104F12E00FFF728FFF0
:109A5800044630F008000BD00748084B08491B1A89
:109A6800DB081B0443F001002246FCF7E1FF204617
:109A780006B010BD0E20FBE748A2020098A2020023
:109A880088AC02002DE9F04F054687B035F8082B61
:109A98001B2A06460C4677D01D2A13D0102A2ED131
:109AA800002101A800F025FB06238DF80430B388B7
:109AB800ADF80C3004F12E030593E36B0295F3B176
:109AC80001A875E01022002101A800F012FB04F1A2
:109AD8002E0320460593FFF74AFF04F1600888B17A
:109AE80002238DF8043001A8E36B0295984741469C
:109AF8000020FFF7D5FE29462046FFF7D7FE07B01E
:109B0800BDE8F08F94F8210094F8229088B394F877
:109B180020A0B6F824B0274604EB4A1A574518D1B6
:109B28000020034601220295B9F1000F24D09A4281
:109B380026D100238DF8043029462046FFF7B6FECB
:109B4800E36B0BB101A8984741460020FFF7A8FE38
:109B5800D5E73A46306A5946FFF782FB2037002896
:109B6800DCD09DF80C3043F001038DF80C30012354
:109B7800D8E703460246D6E710B18DF80490DBE734
:109B880003238DF80430DBE71422002101A800F03C
:109B9800B0FA327A012AB2D1E36B002BAFD004219C
:109BA8002E348DF8041005948DF808200DEB010073
:109BB8009847A4E710DF704713B50446094968467B
:109BC800FEF780F8019808B902B010BDD0E900216D
:109BD8002046904718B16846FEF77EF8F2E7112054
:109BE800F2E700BFCCAC020013B50446074968464B
:109BF800FEF768F8019B0BB902B010BD2046D3E907
:109C0800002190476846FEF767F8F3E7E4AC0200E6
:109C18000B4991F816335A09EC231341DB0706D593
:109C2800084B9A683AB94FF480030B60704742F2C8
:109C38000200FDF777B81A6842F480021A6070478C
:109C480000E100E064240020F7B5194F3C7864BBBC
:109C5800184E012520463570FFF7AEFF112821D098
:109C68002046FFF7C1FF144B8DF803401868019098
:109C78000DF10300FDF72EFA104901A8FFF79AFF2E
:109C88000446B0FA80F0400938709DF80300FDF7EB
:109C980045FA3CB90A4B34701C70FFF7B9FF2846E7
:109CA800FFF7A2FF204603B0F0BD0824FAE700BF83
:109CB8000128002000280020C7AC0200496D0200DE
:109CC80002280020014B1878704700BF01280020A7
:109CD80007B508496846FDF7F5FF019B13B903B0BE
:109CE8005DF804FBD3E9002090476846FDF7F4FFD0
:109CF800F3E700BFD8AC0200FFF7EABF60DF7047A8
:109D080069DF704761DF704730B5134B1B7891B03E
:109D1800FBB1124D34240DF1020103A8ADF8024045
:109D2800FFF7F0FF70B9294601A8FDF7CBFF029BAA
:109D3800002BF0D003A8D3E90021904701A8FDF734
:109D4800CBFFF4E7052804D011B0BDE83040FCF79C
:109D5800E9BF11B030BD00BF0328002028AF0200C2
:109D680030B50C4685B0002900F089800023CDE984
:109D78000133444A039301230A608DF804008DF8E7
:109D8800063001A906232020ADF80830FFF7B8FFF8
:109D980060B1FDF7F1FF3C4B3C4902463C481B1AB9
:109DA800DB081B0443F00100FCF742FE0023CDE969
:109DB80001330393226840F2011301A94020ADF852
:109DC8000630FFF79DFF60B1FDF7D6FF2E4B3149F6
:109DD80002462F481B1ADB081B0443F00100FCF75E
:109DE80027FE0023CDE90133039322680A2301A942
:109DF80001208DF80430FFF783FF60B1FDF7BCFF49
:109E0800214B2549024622481B1ADB081B0443F054
:109E18000100FCF70DFE0023CDE902332268F82388
:109E280001A9A1200193FFF76BFF60B1FDF7A4FF23
:109E3800154B1A49024616481B1ADB081B0443F047
:109E48000100FCF7F5FD00252268039501A9A02073
:109E5800CDE90155FFF754FF034668B1FDF78CFFC4
:109E6800094B0F4902460A481B1ADB081B0443F03A
:109E78000100FCF7DDFD2B46184605B030BD0E236A
:109E8800FAE700BFB81D0020C0A20200F0AC020033
:109E980048A2020036AD020082AD0200CEAD02003B
:109EA8001FAE020073B505460668FFF727FF2B684B
:109EB800B34204461DD91A481A4B1B491B1ADB0822
:109EC8001B0443F002000190FCF7AEFD2B68174914
:109ED80001983246FCF7B5FD4FF080532A68D3F855
:109EE8000C31134901989B0203F100539A1AFCF7AD
:109EF8009FFD2CB90F4B01221A70204602B070BD8D
:109F08002046FDF739FF074B0B49024604481B1A48
:109F1800DB081B0443F00100FCF78AFDEDE700BFF6
:109F280048A20200C0A2020072AE0200A1AE020066
:109F3800D2AE020003280020FCAE02004BDF7047BF
:109F48001FB50E4C01A8FFF7F9FF70B9214602A80A
:109F5800FDF7B8FE039B002BF4D00198D3E900214C
:109F6800904702A8FDF7B8FEF4E7052804D004B02E
:109F7800BDE81040FCF7D6BE04B010BD40AF0200EB
:109F88007F2805D8034A044B105C5B5C1840704777
:109F98000020704758AF0200D8AF0200A0F161035B
:109FA800192B98BF20387047A0F14103192B98BF8F
:109FB800203070477F299ABF017001206FF02E0072
:109FC800704700BF5AB10A787F2A0AD800B10260E8
:109FD8000021501AC3E9001118BF0120704710462C
:109FE80070476FF02E007047A0F16103192B98BFDE
:109FF80020387047A0F14103192B98BF20307047D3
:10A008007F2805D8034A044B105C5B5C18407047F6
:10A018000020704758AF0200D8AF0200024B5B68BF
:10A028009B6809211B681847F81D00206AB30F2A8E
:10A0380070B511D8013A2FD0034600EB020C01E0AD
:10A048009C4524D08E461C4611F8012B13F8010BB1
:10A058009042F5D0801A70BD40EA010C1CF0030F45
:10A0680004460B4606D0013AE6E7043A042A20469D
:10A078001946DFD9194620460E680568B54203F12E
:10A08800040304F10404F0D0D4E710467047607864
:10A098009EF80120801A70BD00780A78DAE700BFC0
:10A0A800844640EA010313F0030F18D18446202A9E
:10A0B8000BD32DE9F007B1E8F807A0E8F807A2F1FB
:10A0C8002002202AF7D2BDE8F007042A07D351F866
:10A0D800043B40F8043BA2F10402042AF7D2002A08
:10A0E80005D011F8013B00F8013B013AF9D160466F
:10A0F80070478446002A2DD010F0030F04D000F8D2
:10A10800011B013A26D0F7E7C9B241EA012141EA29
:10A118000141202A12D3A2F120022DE9F0030B46B7
:10A128000C460D460E460F4688468946A0E8FA03B7
:10A13800203AFBD2BDE8F00320320BD0042A05D325
:10A1480040F8041B043A05D0042AF9D200F8011B90
:10A15800013AFBD16046704710F0030F19D111F096
:10A16800030F16D12DE970004FF001364FF0803300
:10A1780050F8044B51F8045BAC4205D1A4EB06053A
:10A1880025EA04051D40F3D0A0F10400A1F1040163
:10A1980070BC10F8012B11F8013BD21A01D1002B29
:10A1A800F7D11046704700F1010110F0030F11D0EC
:10A1B80010F8012B002A23D010F0030F0AD010F852
:10A1C800012B002A1CD010F0030F03D010F8012B2C
:10A1D800002A15D02DE970004FF001324FF080337E
:10A1E80050F8044BA4EB020525EA04051D4000D1F4
:10A1F800F6E7A0F1040070BC10F8012B002AFBD18F
:08A20800A0EB0100704700000B
:08A210004D8102000000000076
:10A21800E992020000000000B58F02000000000073
:10A228004D980200E01D0020B1940200082700208C
:10A238008D9A02001C270020659002000000000093
:10A248002AAA02000000000030AA02000000000054
:10A2580037AA0200000000003BAA0200000000002C
:10A2680040AA02000000000092A3020000000303BD
:10A2780068A40200000000008CA402000000000096
:10A28800A7AA020000000303B5AC02000000030304
:10A29800ACAC02000000030324AA02000000000086
:10A2A800F2AB02000000030364AC020000000303E9
:10A2B800BFAC02000000030319AF02000000030353
:10A2C80034AF020000000303F6A4020000000000FF
:08A2D8000CA5020000000000CB
:10A2E000501E0020181F0020201F0020581E002094
:10A2F000180000007C250020442600204C26002069
:08A30000842500201800000074
:10A30800502600204C26002001000000020000001A
:04A318000100000040
:08A31C00E981020000000000CD
:10A32400119D020000000000499F0200000000008F
:10A3340064A302000000000070A30200CC1D0020F2
:10A34400FFFFFFFFFFFFFFFFFFFFFFFFFFFFFFFF19
:10A3540000000000000000000000D601060100001B
:10A36400D96402003D65020089640200756172745B
:10A374005F6C6F675F6261636B656E64004261630B
:10A384006B656E647320666C7573686564006170D8
:10A3940070000000402300207F000000C023002044
:10A3A4001B5B313B33316D0025734C6F6773206445
:10A3B400726F70706564202825642925730D0A0066
:10A3C4001B5B306D002573003C25733E2025733ADA
:10A3D4002000202530327800202020007C002563D6
:10A3E400001B5B313B33306D001B5B313B33326D03
:10A3F400001B5B313B33336D001B5B313B33346DEE
:10A40400001B5B313B33356D001B5B313B33366DD9
:10A41400001B5B313B33376D007761726E696E6789
:10A4240000696E666F00646562756700C4A302000C
:10A43400E5A30200A4A30200EDA30200F5A3020019
:10A44400FDA3020005A402000DA4020015A402004D
:10A454000000000079A402001DA4020025A402004B
:10A464002AA402006170705F627574746F6E004696
:10A474006174616C206572726F72005379737465D4
:10A484006D207265736574006170705F74696D65C9
:10A49400720001000600000000000000D823002024
:10A4A400B56D020052544320696E7374616E636526
:10A4B40020616C726561647920696E697469616C8C
:10A4C400697A65642E005254433A20696E6974694E
:10A4D400616C697A65642E00000000000338FDD8C1
:10A4E400704730313233343536373839414243449A
:10A4F40045467077725F6D676D74000048A2020074
:10A5040048A2020004000000736F72746C697374D3
:10A51400004E52465F53554343455353004E5246F3
:10A524005F4552524F525F5356435F48414E444C2D
:10A5340045525F4D495353494E47004E52465F457D
:10A5440052524F525F534F46544445564943455F18
:10A554004E4F545F454E41424C4544004E52465F77
:10A564004552524F525F494E5445524E414C004E53
:10A5740052465F4552524F525F4E4F5F4D454D001C
:10A584004E52465F4552524F525F4E4F545F464FB4
:10A59400554E44004E52465F4552524F525F4E4F05
:10A5A400545F535550504F52544544004E52465FE9
:10A5B4004552524F525F494E56414C49445F5041B7
:10A5C40052414D004E52465F4552524F525F494EE2
:10A5D40056414C49445F5354415445004E52465FE2
:10A5E4004552524F525F494E56414C49445F4C4587
:10A5F4004E475448004E52465F4552524F525F49AF
:10A604004E56414C49445F464C414753004E5246D6
:10A614005F4552524F525F494E56414C49445F4444
:10A62400415441004E52465F4552524F525F44419D
:10A6340054415F53495A45004E52465F4552524F6A
:10A64400525F54494D454F5554004E52465F455252
:10A65400524F525F4E554C4C004E52465F4552523B
:10A664004F525F464F5242494444454E004E524673
:10A674005F4552524F525F494E56414C49445F41E7
:10A68400444452004E52465F4552524F525F425527
:10A694005359004E52465F4552524F525F434F4EFC
:10A6A4004E5F434F554E54004E52465F4552524FF3
:10A6B400525F5245534F5552434553004E52465FE5
:10A6C4004552524F525F4D4F44554C455F4E4F5487
:10A6D4005F494E495449414C495A4544004E5246FB
:10A6E4005F4552524F525F4D555445585F494E494C
:10A6F400545F4641494C4544004E52465F455252D0
:10A704004F525F4D555445585F4C4F434B5F464144
:10A71400494C4544004E52465F4552524F525F4D9C
:10A72400555445585F554E4C4F434B5F4641494C39
:10A734004544004E52465F4552524F525F4D555468
:10A7440045585F434F4E445F494E49545F46414923
:10A754004C4544004E52465F4552524F525F4D4F56
:10A7640044554C455F414C52454144595F494E491B
:10A774005449414C495A4544004E52465F45525251
:10A784004F525F53544F524147455F46554C4C001E
:10A794004E52465F4552524F525F4150495F4E4FB1
:10A7A400545F494D504C454D454E544544004E521E
:10A7B400465F4552524F525F464541545552455F9C
:10A7C4004E4F545F454E41424C4544004E52465F05
:10A7D4004552524F525F494F5F50454E44494E4790
:10A7E400004E52465F4552524F525F4452565F5498
:10A7F40057495F4552525F4F56455252554E004E8F
:10A8040052465F4552524F525F4452565F54574925
:10A814005F4552525F414E41434B004E52465F45A5
:10A8240052524F525F4452565F5457495F455252F9
:10A834005F444E41434B004E52465F4552524F5285
:10A844005F424C455F495053505F52585F504B54E0
:10A854005F5452554E4341544544004E52465F4561
:10A8640052524F525F424C455F495053505F4348E8
:10A87400414E4E454C5F414C52454144595F455809
:10A8840049535453004E52465F4552524F525F4211
:10A894004C455F495053505F4C494E4B5F444953BC
:10A8A400434F4E4E4543544544004E52465F455235
:10A8B400524F525F424C455F495053505F5045459B
:10A8C400525F52454A454354454400556E6B6E6F82
:10A8D400776E206572726F7220636F64650000008A
:10A8E4000000000015A502000100000021A50200DF
:10A8F400020000003FA502000300000060A5020062
:10A904000400000073A502000500000084A50200F5
:10A914000600000098A5020007000000B0A5020090
:10A9240008000000C8A5020009000000E0A502001C
:10A934000A000000F9A502000B00000011A60200A5
:10A944000C00000028A602000D0000003CA6020036
:10A954000E0000004EA602000F0000005DA60200DB
:10A964001000000071A602001100000088A6020079
:10A974001200000097A6020013000000ACA602001B
:10A9840080000000C0A6020081000000E1A60200D1
:10A9940082000000FDA602008300000019A7020047
:10A9A4008400000037A702008500000058A70200B9
:10A9B400860000007DA702009000000094A702001A
:10A9C40091000000B2A7020092000000D0A702008C
:10A9D40000820000E5A702000182000003A8020033
:10A9E400028200001FA80200008400003BA80200AD
:10A9F400018400005FA802000284000089A802000C
:10AA040003840000AEA80200000001010100000060
:10AA140001010000000001010000000011121314E4
:10AA2400636C6F636B00434C4F434B004750494F7B
:10AA3400544500505253005541525400554152540C
:10AA44004500436F6E6E65637465642E00446973DC
:10AA5400636F6E6E65637465642E0043454E545295
:10AA6400414C206578616D706C65207374617274FB
:10AA740065642E205363616E20666F72204D36200C
:10AA84007065726970686572616C0000FC26002054
:10AA94005C260020040000002000000001000000EB
:10AAA4004D3600626C655F64625F64697363007352
:10AAB400645F626C655F6761705F646174615F6C41
:10AAC400656E6774685F75706461746528292028F1
:10AAD4007265717565737429206F6E20636F6E6E75
:10AAE400656374696F6E203078257820726574759B
:10AAF400726E65642025732E00546865207265713A
:10AB04007565737465642054582F525820706163BE
:10AB14006B6574206C656E67746820697320746F4C
:10AB24006F206C6F6E672062792025752F25752044
:10AB34006F63746574732E00546865207265717553
:10AB4400657374656420636F6D62696E6174696FA7
:10AB54006E206F6620545820616E64205258207015
:10AB640061636B6574206C656E67746873206973C8
:10AB740020746F6F206C6F6E6720627920257520BA
:10AB84006D6963726F7365636F6E64732E007364B3
:10AB94005F626C655F67617474635F657863686145
:10ABA4006E67655F6D74755F726571756573742822
:10ABB400292072657475726E65642025732E007386
:10ABC400645F626C655F67617474735F6578636802
:10ABD400616E67655F6D74755F7265706C79282945
:10ABE4002072657475726E65642025732E006E7212
:10ABF400665F626C655F676174740053442047410B
:10AC040054542070726F63656475726520282564DE
:10AC140029206661696C6564206F6E20636F6E6EB7
:10AC2400656374696F6E2068616E646C6520256469
:10AC34002077697468206572726F723A20307825C3
:10AC44003038582E00556E696D706C656D656E7484
:10AC540065642047415454205265717565737400CE
:10AC64006E72665F626C655F6771000000000000D1
:10AC7400CF96020000000000000000000000000069
:10AC84009396020073645F626C655F6761705F73C3
:10AC940063616E5F73746172742072657475726E31
:10ACA4006564203078257800626C655F7363616E3B
:10ACB40000626C655F6C62735F63006E72665F73E3
:10ACC40064680001000007001CA302001CA302002A
:10ACD4000800000024A3020034A3020008000000BE
:10ACE4001CA3020024A302000800000073645F6236
:10ACF4006C655F6366675F73657428292072657489
:10AD040075726E6564202573207768656E206174A2
:10AD140074656D7074696E6720746F207365742038
:10AD2400424C455F434F4E4E5F4346475F47415059
:10AD34002E0073645F626C655F6366675F7365743E
:10AD440028292072657475726E65642025732077D6
:10AD540068656E20617474656D7074696E672074C3
:10AD64006F2073657420424C455F4741505F4346F2
:10AD7400475F524F4C455F434F554E542E0073640A
:10AD84005F626C655F6366675F7365742829207210
:10AD9400657475726E6564202573207768656E200E
:10ADA400617474656D7074696E6720746F20736567
:10ADB4007420424C455F434F4D4D4F4E5F434647D1
:10ADC4005F56535F555549442E0073645F626C654A
:10ADD4005F6366675F736574282920726574757292
:10ADE4006E6564202573207768656E2061747465D0
:10ADF4006D7074696E6720746F2073657420424CA3
:10AE0400455F47415454535F4346475F415454524E
:10AE14005F5441425F53495A452E0073645F626C2C
:10AE2400655F6366675F736574282920726574754E
:10AE3400726E6564202573207768656E2061747472
:10AE4400656D7074696E6720746F20736574204239
:10AE54004C455F47415454535F4346475F53455203
:10AE6400564943455F4348414E4745442E00496E89
:10AE740073756666696369656E742052414D20611D
:10AE84006C6C6F636174656420666F7220746865AE
:10AE940020536F66744465766963652E0043686168
:10AEA4006E6765207468652052414D207374617229
:10AEB40074206C6F636174696F6E2066726F6D20AD
:10AEC4003078257820746F20307825782E004D61F5
:10AED40078696D756D2052414D2073697A652066DD
:10AEE4006F72206170706C69636174696F6E206940
:10AEF4007320307825782E0073645F626C655F651B
:10AF04006E61626C6528292072657475726E656461
:10AF14002025732E006E72665F7364685F626C65D1
:10AF24000000000018A2020048A20200080000006D
:10AF34006E72665F7364685F736F630010A20200D1
:10AF440018A202000800000043000000504F5349BB
:10AF540058000000202020202020202020682828BD
:10AF640028282020202020202020202020202020CD
:10AF74002020202048101010101010101010101055
:10AF84001010101084848484848484848484101035
:10AF94001010101010818181818181010101010152
:10AFA400010101010101010101010101010101107E
:10AFB4001010101010828282828282020202020227
:10AFC400020202020202020202020202020202104F
:10AFD4001010102000070320041702010857104026
:10AFE400800000004CAF020050B0020064B10200C7
:10AFF40053756E004D6F6E0054756500576564009F
:10B0040054687500467269005361740000000000C2
:10B014004A616E00466562004D61720041707200C3
:10B024004D6179004A756E004A756C004175670080
:10B03400536570004F6374004E6F7600446563007F
:10B0440000000000414D00504D00000088B1020096
:10B0540084B1020084B1020084B1020084B1020010
:10B0640084B1020084B1020084B1020084B1020000
:10B0740084B10200FFFFFFFFFFFFFFFFFFFFFFFFA1
:10B08400FFFF0000C4B00200F4AF020000B10200F0
:10B0940014B0020048B00200A8B0020058B1020087
:10B0A400B4B00200256D2F25642F2579000000001F
:10B0B400256120256220256520255420255900007E
:10B0C40053756E646179004D6F6E646179005475D7
:10B0D4006573646179005765646E657364617900B2
:10B0E40054687572736461790046726964617900A9
:10B0F4005361747572646179000000004A616E7571
:10B10400617279004665627275617279004D61728F
:10B11400636800417072696C004D6179004A756E14
:10B1240065004A756C7900417567757374005365E1
:10B134007074656D626572004F63746F626572004E
:10B144004E6F76656D62657200446563656D626518
:10B154007200000025483A254D3A255300000000AE
:10B16400899F0200A59F0200B19F020009A002006E
:10B17400F19F0200FD9F0200BD9F0200CD9F0200CF
:08B18400000000002E00000095
:10B18C0000000000002000400000000000200040F3
:10B19C000000000000000000FF0000000010014053
:10B1AC00110004000090D00301000000F41D0020E9
:10B1BC0090AA020008A30200F4A20200FFFF000004
:10B1CC00E8AF0200E8AF0200E8AF0200E8AF02000F
:04B1DC00E8AF0200D6
:040000032000635D19
:00000001FF
